:020000020000FC
:100000004FE344B940EC4AB940EC47B99927662719
:1000100002D008D0FDCF26B12695269526952695A7
:1000200023700895203051F001D0F2CF213069F0D3
:1000300001D0EECF223089F001D0EACF02D015D026
:10004000FDCF56B19FE0952308956F3019F0639569
:10005000962F0BC060E0962F08C0603019F06A95AB
:10006000962F03C06FE0962F00C002D02CD0D0CFC7
:100070000E943D009BB995B90895EF93FF930F92AD
:10008000001809C03F065B4F666D7D077F6F777C68
:10009000395E79714936E4E8F0E0E90FF01DC89562
:1000A000902D0F90FF91EF9108950F931F9300E013
:1000B000039510E01395193FE8F30000003AC0F3F0
:1000C0001F910F91089502E3F0DF0A95E9F7089573
:00000001FF
